:100000006F002052000000004A0100004C01000077
:1000100000000000000000000000000000000000E0
:1000200000000000000000000000000000000000D0
:100030002005000000000000200500000000000076
:10004000200500002005000020050000200500001C
:10005000200500002005000020050000200500000C
:1000600020050000200500002005000020050000FC
:1000700020050000200500002005000020050000EC
:10008000FC01000020050000200500002005000004
:1000900020050000200500002005000000000000F1
:1000A000511126C022C206C4828282441244A24058
:1000B000310182802A86014593F6150091C232955E
:1000C00085810606F5F9828000000000634E050276
:1000D00063C305042E86AA857D5515C285466378BF
:1000E000B6006356C00006068606E36CB6FE014500
:1000F00063E4C500918D558D85820582F5FA828075
:100100008682C93F2E8582823305A04063D70500D1
:10011000B305B040C1B7B305B0408682653F330533
:10012000A0408282868263C70500634905005D376F
:100130002E858282B305B040E35B05FE3305A04007
:10014000513F3305B0408282000001A0B707EFBEE7
:1001500037E700E0938707083CC701A0EFF25FF4A0
:1001600011651301C1FD85451305050202C402C6D0
:1001700002C802CA02CC02CE02D002C002C22D2D99
:1001800037140140930700047C842C009147130529
:1001900004403EC83D29930700027C84E1473EC8E5
:1001A0002C008D47130504403EC62521F1673744D6
:1001B0000140938707203ECA4C08B7070C0013057F
:1001C00004803ECE02CC2310010231250546930562
:1001D000505213050480EF00206E930700127C80BC
:1001E00085475C810A8585473EC2BD298545130543
:1001F0000480EF00006B1301410245BD711122C064
:10020000374401409305505213050480EF00C06F3E
:100210001DCD13050480EF00006E138701841C239D
:100220009306F00363E2F6021C231375F50F93F6B1
:10023000F70F9387160093F7F70F1CA3B70700205B
:1002400093878703B69788A30547A380E184024478
:10025000110173002030EFF2BFE437440140AA845B
:10026000930704803E8593050008512DB747014050
:100270009387078065D913050480A685374401401C
:10028000BD25130404809305000422858D2D65DDB2
:1002900029BDEFF2FFE02A84B304B5006313940094
:1002A00029B508200504453FD5BFEFF27FDF511186
:1002B0008545114502C002C202C4FD290145312114
:1002C00091477C8037150140C1473EC48A858D47E0
:1002D000130505803EC2F52C3101C1BBEFF25FDC96
:1002E00051118545414502C002C202C4F12189472E
:1002F0007C80930780043EC48A858D473715014072
:100300003EC2C12C310155B3EFF29FD98945371553
:100310000140352E1335150049BBEFF27FD861112E
:10032000612A0D250545352E29444137453F3D3588
:10033000B71401400546914513850480312E1305FD
:10034000A00F1D2D014691451385048031267D1493
:100350001305A00F1374F40F052579F89387018412
:100360002380070013871184938711843EC09387ED
:10037000048023000700138401843EC271371336C2
:100380001500AA8412459145C12C82479C2393F7FE
:10039000F70FEDD72945CD238247370500201307F6
:1003A000A00A23800700930785039C236313F702A9
:1003B0000C2013058503F13D08209307F5FF13D5A5
:1003C000F7013E95058505051375F50F69352685F9
:1003D0005935230004005DB7EFF29FCC371402407B
:1003E0001C403707FFF8414593E717001CC05C40ED
:1003F000F98F5CC01C403707F7FE7D17F98F1CC0D2
:100400001C403707FCFF7D17F98F1CC05C4041770B
:100410007D17F98F5CC0B7079F001CC4ED241C4CEE
:1004200093E707021CCCB717014003A70740938648
:1004300007401377F7F023A0E74003A707401367AF
:10044000070823A0E74089479CCAB7F7FF1F03C5E9
:10045000477D9307F00F6304F5007D896D24B7276E
:1004600002409843C176FD16719B98C39843136769
:10047000170098C3B7170240D843D8C3D843758F25
:10048000D8C3D843B7060001D8C39843558F98C343
:10049000984393166700E3DD06FED843B716024083
:1004A000719BD8C3D84313672700D8C32147DC42C8
:1004B000B18BE39EE7FED5BEEFF29FBE3717024039
:1004C0005C43370400209146B18B1304040163851B
:1004D000D700A1466380D704B7376E0193870760C2
:1004E0001CC0B7160240DC420840918313F7F700A6
:1004F000B707002093870700BA978C23DC4293F557
:10050000F50F93F707083357B50099E3E1362A87CB
:1005100018C061BE5C43B777DC02938707C0C9B7D8
:1005200001A09701002093816131138181FC1305A3
:10053000000A970500209385E5AC170600201306F6
:1005400066AC63FAC5008322050023A0550011059F
:100550009105E3EAC5FE170500001305E54597057B
:100560000020938525AA17060020130626AD63FAFE
:10057000C5008322050023A0550011059105E3EA7B
:10058000C5FE17050020130565AB9385C18463770D
:10059000B500232005001105E36DB5FEB72200006C
:1005A00093820288739002308D427390428097024A
:1005B0000000938222A593E2320073905230EFF054
:1005C000BFE197020000938282D5739012347300CA
:1005D0002030944593F7060193F2F60081C7DC4181
:1005E000B3E2F20083D3050093F7F30FA5C303230F
:1005F0000500611122C226C08147130480029304C2
:10060000800405473316F70033F7C3006312E60290
:10061000939527003D473317B7001347F7FF337310
:100620006700B395B20033E36500639D860050C94F
:1006300085072147E397E7FC1244232065008244A5
:1006400021018280E39696FE10C9DDB782800845BD
:100650006D8D3335A000828019C20CC982804CC9CF
:10066000828023A2A184828083A6418485471821A9
:100670006390F6021C31639CD7023C219A0793E7F2
:1006800007F8B7E600E093F7F70FBA962380F64035
:100690008546935757003397E600544189CE938798
:1006A00007048A07B7E600E0B69798C38280EDF3A7
:1006B0003C219A07F9B793870706B7E600E08A0757
:1006C000B69798C30F1000008280B7170240984376
:1006D000C176FD16758F98C39843B706FCFFFD16CB
:1006E000758F98C341676307E50037070400630708
:1006F000E50082809843498F98C382809843B7066B
:100700000500558FD5BF371702401C430E0593F7E0
:1007100077F05D8D08C38280EFF29F983717024013
:100720005C4391462A84B18B6385D700A146638FD1
:10073000D706B7376E01938707601CC0B716024013
:10074000DC42918313F7F700B707002093878702F5
:10075000BA978C23DC42184093F5F50F93F70708FE
:100760003355B70099E33A85B53248C008C448C448
:10077000B7170240DC438D46AD83FD8B13D737009E
:100780008A07F18BD98F13F6370113F7370063F41B
:10079000C600138747FFB707002093874701BA9722
:1007A0008C23EFF03F9308C86FF03F905C43B7771E
:1007B000DC02938707C051B799C5371702401C4F19
:1007C0005D8D08CF8280B7170240984F1345F5FF23
:1007D000798D88CF8280EFF2BF8C1629F577FD17CF
:1007E000F58FF621DA252111D58F1EA95625FD7723
:1007F0009387379FF58FD6212A842EC0D58F9625D3
:10080000D58FB625D58F5EA55E29C207C18393F724
:10081000F7CF5D8F5AA948000137B747014093874A
:10082000078082456312F406C2475A2413951700C5
:100830003E9542070E0541873E958C41635807045B
:100840008605EFF03F89930540062AC0EFF09F88A8
:10085000824793144500930540063E85EFF05F8A7A
:100860005E24C207C18763D507020E0593054006C3
:1008700013052503EFF01F861D89C98CC204C180B2
:1008800006A461016FF07F82B24745B78A0555BF64
:1008900012059305400613052503EFF0BF833D893C
:1008A000E9BF91C55E250967D98F5EA582805A256B
:1008B000F977FD17F98FD5BF13F7F50F8547158326
:1008C000B395B7006319F7009307C500984301CEAD
:1008D000D98D8CC38280894693074501E318D7FEE2
:1008E00093070501E5B793C5F5FFF98DDDB793F5DE
:1008F000F51F4EA182804A211375F51F82800A21BF
:100900006D8D3335A000828013F7F50F8546158372
:10091000B397B6006311D7025A25F98F1A21014502
:100920004207418381CB0545A181B315B5006D8F89
:100930003335E000828089466314D7001A29F1BF5D
:100940005A29E1BFEFF2CFF5B707002003A5070151
:10095000B7157A0093850520EFF0CFF71375F50FE3
:100960002385A18493175500898F8A073E950E052C
:100970002394A1846FF06FF3EFF28FF237F400E06D
:100980005C40AA85F99B5CC003D58184EFF08FF2AF
:1009900008C8232404001C4093E717001CC0B7F7C5
:1009A00000E0D843058B75DF9843799B98C36FF0BF
:0409B000CFEF000085
:1009B40001020304050607080102030405060708EB
:1009C400006CDC020204060804080C10081018204D
:1009D400102030402040608001020304050607080F
:0809E4000102030405060708E7
:00000001FF
