:100000006F004054000000004A0100004C01000055
:1000100000000000000000000000000000000000E0
:1000200000000000000000000000000000000000D0
:100030004205000000000000420500000000000032
:100040004205000042050000420500004205000094
:100050004205000042050000420500004205000084
:100060004205000042050000420500004205000074
:100070004205000042050000420500004205000064
:10008000FC0100004205000042050000420500009E
:10009000420500004205000042050000000000008B
:1000A000511126C022C206C4828282441244A24058
:1000B000310182802A86014593F6150091C232955E
:1000C00085810606F5F9828000000000634E050276
:1000D00063C305042E86AA857D5515C285466378BF
:1000E000B6006356C00006068606E36CB6FE014500
:1000F00063E4C500918D558D85820582F5FA828075
:100100008682C93F2E8582823305A04063D70500D1
:10011000B305B040C1B7B305B0408682653F330533
:10012000A0408282868263C70500634905005D376F
:100130002E858282B305B040E35B05FE3305A04007
:10014000513F3305B0408282000001A0B707EFBEE7
:1001500037E700E0938707083CC701A0EFF25FF4A0
:1001600011651301C1FD85451305050202C402C6D0
:1001700002C802CA02CC02CE02D002C002C2B92D0D
:1001800037140140930700047C842C009147130529
:1001900004403EC88521930700027C84E1473EC8A5
:1001A0002C008D47130504403EC6A921F167374452
:1001B0000140938707203ECA4C08B7070C0013057F
:1001C00004803ECE02CC23100102052D0546930586
:1001D000505213050480EF006070930700127C807A
:1001E0000A8585473EC22301010045218545130547
:1001F0000480EF00406D1301410245BD711122C022
:10020000374401409305505213050480EF000072FB
:100210001DCD13050480EF004070138701861C2359
:100220009306F00563E2F6021C231375F50F93F6AF
:10023000F70F9387160093F7F70F1CA3B70700205B
:1002400093878703B69788A30547A380E186024476
:10025000110173002030EFF2BFE437440140AA845B
:10026000930704803E8593050008652DB74701403C
:100270009387078065D913050480A685374401401C
:10028000492D13040480930500042285592D65DD52
:1002900029BDEFF2FFE02A84B304B5006313940094
:1002A00029B508200504453FD5BFEFF27FDF511186
:1002B0008545114502C002C202C40D2301453D21FE
:1002C00091477C8037150140C1473EC48A858D47E0
:1002D000130505803EC2392E3101C1BBEFF25FDC50
:1002E00051118545414502C002C202C4C529894752
:1002F0007C808A8593078004371501403EC4DD2C3D
:10030000310165B3EFF2DFD98945371501408D26FC
:100310003335A00059BBEFF2BFD851117D2AA92572
:1003200005458D2629445137553F0D3DB7140140F1
:10033000054691451385048089261305A00FB92D24
:1003400001469145138504800D2E7D141305A00FE1
:100350001374F40FA12579F813870186938701861A
:10036000230007003EC01387118693870480230073
:100370000700138411863EC271373336A000AA8469
:1003800012459145DD2C1C2093F7F70FF5D723007C
:100390000400814705453EC411251820A247137764
:1003A000F70F75F7850793F7F70F0D47E394E7FE0F
:1003B00082479C2393F7F70F8DCF370500209307D3
:1003C00085039C231307A00A6315F70282471305D0
:1003D00085038C237D3D824788239307F5FF13D542
:1003E000F7013E95058505051375F50FAD35268595
:1003F0009D3582472380070041B7EFF27FCA37144B
:1004000002401C403707FFF8414593E717001CC026
:100410005C40F98F5CC01C403707F7FE7D17F98FF1
:100420001CC01C403707FCFF7D17F98F1CC05C40C7
:1004300041777D17F98F5CC0B7079F001CC4ED247E
:100440001C4C93E707021CCCB717014003A70740D9
:10045000938607401377F7F023A0E74003A70740F0
:100460001367070823A0E74089479CCAB7F7FF1F17
:1004700003C5477D9307F00F6304F5007D896D2464
:10048000B72702409843C176FD16719B98C39843E5
:100490001367170098C3B7170240D843D8C3D8438F
:1004A000758FD8C3D843B7060001D8C39843558F7A
:1004B00098C3984393166700E3DD06FED843B7164A
:1004C0000240719BD8C3D84313672700D8C3214784
:1004D000DC42B18BE39EE7FEC9BEEFF27FBC37176B
:1004E00002405C43370400209146B18B13040401A1
:1004F0006385D700A1466380D704B7376E01938721
:1005000007601CC0B7160240DC420840918313F715
:10051000F700B707002093870700BA978C23DC42C7
:1005200093F5F50F93F707083357B50099E35D3658
:100530002A8718C09DBE5C43B777DC02938707C04B
:10054000C9B701A0970100209381412F138181FC3D
:100550001305000A970500209385C5AA17060020F9
:10056000130646AA63FAC5008322050023A055009E
:1005700011059105E3EAC5FE1705000013050546C0
:1005800097050020938505A817060020130606ABE3
:1005900063FAC5008322050023A0550011059105CB
:1005A000E3EAC5FE17050020130545A99385C1861A
:1005B0006377B500232005001105E36DB5FEB72272
:1005C000000093820288739002308D4273904280C3
:1005D00097020000938202A393E23200739052309C
:1005E000EFF0BFE197020000938222D373901234A0
:1005F00073002030944593F7060193F2F60081C70B
:10060000DC41B3E2F20083D3050093F7F30FA5C3F7
:1006100003230500611122C226C081471304800212
:100620009304800405473316F70033F7C3006312C1
:10063000E602939527003D473317B7001347F7FFAE
:1006400033736700B395B20033E36500639D8600A2
:1006500050C985072147E397E7FC12442320650032
:10066000824421018280E39696FE10C9DDB7828024
:1006700008456D8D3335A000828019C20CC9828077
:100680004CC9828023A2A186828083A641868547A9
:1006900018216390F6021C31639CD7023C219A0713
:1006A00093E707F8B7E600E093F7F70FBA962380D1
:1006B000F6408546935757003397E600544189CE5C
:1006C000938707048A07B7E600E0B69798C382804D
:1006D000EDF33C219A07F9B793870706B7E600E0E8
:1006E0008A07B69798C30F1000008280B7170240A0
:1006F0009843C176FD16758F98C39843B706FCFFE3
:10070000FD16758F98C341676307E500370704003E
:100710006307E50082809843498F98C3828098439D
:10072000B7060500558FD5BF371702401C430E058D
:1007300093F777F05D8D08C38280EFF27F963717CD
:1007400002405C4391462A84B18B6385D700A14661
:100750006380D708B7376E01938707601CC0B71650
:100760000240DC42918313F7F700B707002093871C
:100770008702BA978C23DC42184093F5F50F93F764
:1007800007083355B70081E73A85EFF0BF9448C0BA
:1007900008C448C4B7170240DC438D46AD83FD8BC7
:1007A00013D737008A07F18BD98F13F6370113F768
:1007B000370063F4C600138747FFB707002093870D
:1007C0004701BA978C23EFF0FF9008C86FF0FF8DB8
:1007D0005C43B777DC02938707C049B799C53717E1
:1007E00002401C4F5D8D08CF8280B7170240984FA2
:1007F0001345F5FF798D88CF8280EFF27F8A162925
:10080000F577FD17F58FF621DA252111D58F1EA971
:100810005625FD779387379FF58FD6212A842EC0E2
:10082000D58F9625D58FB625D58F5EA55E29C207B3
:10083000C18393F7F7CF5D8F5AA94800FD3DB747B5
:1008400001409387078082456312F406C2475A2409
:10085000139517003E9542070E0541873E958C4142
:10086000635807048605EFF0FF86930540062AC00B
:10087000EFF05F86824793144500930540063E855E
:10088000EFF01F885E24C207C18763D507020E05FB
:100890009305400613052503EFF0DF831D89C98CFE
:1008A000C204C18006A461016FF03F80B24745B722
:1008B0008A0555BF12059305400613052503EFF081
:1008C0007F813D89E9BF91C55E250967D98F5EA506
:1008D00082805A25F977FD17F98FD5BF13F7F50FE9
:1008E00085471583B395B7006319F7009307C500D3
:1008F000984301CED98D8CC38280894693074501E8
:10090000E318D7FE93070501E5B793C5F5FFF98D09
:10091000DDB793F5F51F4EA182804A211375F51FAF
:1009200082800A216D8D3335A000828013F7F50F88
:1009300085461583B397B6006311D7025A25F98F00
:100940001A2101454207418381CB0545A181B31599
:10095000B5006D8F3335E000828089466314D7007F
:100960001A29F1BF5A29E1BFEFF28FF3B707002030
:1009700003A50701B7157A0093850520EFF08FF5E1
:100980001375F50F2385A18693175500898F8A0764
:100990003E950E052394A1866FF02FF1EFF24FF0F4
:1009A00037F400E05C40AA85F99B5CC003D58186E2
:1009B000EFF04FF008C8232404001C4093E7170011
:1009C0001CC0B7F700E0D843058B75DF9843799BCF
:0809D00098C36FF08FED0000E9
:1009D80001020304050607080102030405060708C7
:1009E800006CDC020204060804080C100810182029
:1009F80010203040204060800102030405060708EB
:080A08000102030405060708C2
:00000001FF
